:020000040800F2
:1000000000040020450100089B010008930100083E
:10001000970100088D010008D502000800000000CB
:100020000000000000000000000000009F01000828
:1000300091010008000000009D0100087102000805
:100040005F0100085F0100085F0100085F01000810
:100050005F0100085F0100085F0100085F01000800
:100060005F0100085F0100085F0100085F010008F0
:100070005F0100085F0100085F0100085F010008E0
:100080005F0100085F0100085F0100085F010008D0
:100090005F0100085F0100085F0100085F010008C0
:1000A0005F0100085F0100085F0100085F010008B0
:1000B0005F0100085F0100085F0100085F010008A0
:1000C0005F0100085F0100085F0100085F01000890
:1000D0005F0100085F0100085F0100085F01000880
:1000E0005F0100085F0100085F0100085F01000870
:1000F0005F0100085F0100085F0100085F01000860
:100100005F0100085F0100085F0100085F0100084F
:100110005F0100085F0100085F0100085F0100083F
:100120005F0100085F0100085F0100085F0100082F
:10013000DFF80CD000F018F800480047F70200087C
:10014000000400200648804706480047FEE7FEE717
:10015000FEE7FEE7FEE7FEE7FEE7FEE7FEE7FEE777
:100160007502000831010008064C074D06E0E06802
:1001700040F0010394E8070098471034AC42F6D3EE
:10018000FFF7DAFFFC0200080C03000800BFFEE7DF
:10019000704700BFFEE700BFFEE77047704770473B
:1001A00010B500F001F810BD002100202E4A1268A1
:1001B00042F480322C4B1A6000BF2B4A126802F4C2
:1001C0000030491C10B9B1F5A06FF6D1264A12686B
:1001D00012F4003F01D0012000E00020012842D1AC
:1001E000224A126842F01002204B1A601A46126826
:1001F00022F003021A601A46126842F002021A60E4
:10020000194A5268184B5A601A4652685A601A4680
:10021000526842F480625A601A46526822F47C1294
:100220005A601A46526842F4E8125A601A46126836
:1002300042F080721A6000BF0B4A126812F0007F11
:10024000FAD0094A526822F00302074B5A601A4654
:10025000526842F002025A6000BF034A526802F03C
:100260000C02082AF9D17047001002400020024019
:100270007047000010B51348006840F001001149B4
:10028000086008464068104908400E494860084622
:1002900000680E4908400B4908600846006820F4D1
:1002A000802008600846406820F4FE0048604FF453
:1002B0001F008860FFF774FF4FF00060044908607A
:1002C00010BD0000001002400000FFF8FFFFF6FE26
:1002D00008ED00E000BFFEE702E008C8121F08C1F9
:1002E000002AFAD170477047002001E001C1121FB7
:1002F000002AFBD1704700BFFEE700000C03000896
:0C0300000000002000040000E8020008DB
:0400000508000131BD
:00000001FF
