:020000040800F2
:10000000080400206501000801030008CD02000873
:10001000FD020008AD010008C9040008000000004E
:1000200000000000000000000000000025030008A0
:10003000B101000800000000030300085904000893
:100040007F0100087F0100087F0100087F01000890
:100050007F0100087F0100087F0100087F01000880
:100060007F0100087F0100087F0100087F01000870
:100070007F0100087F0100087F0100087F01000860
:100080007F0100087F0100087F0100087F01000850
:100090007F0100087F0100087F0100087F01000840
:1000A0007F0100087F0100087F0100087F01000830
:1000B0007F0100087F0100087F0100087F01000820
:1000C0007F0100087F0100087F0100087F01000810
:1000D0007F0100087F0100087F0100087F01000800
:1000E0007F0100087F0100087F0100080000000078
:1000F0000000000000000000000000000000000000
:1001000000000000000000007F0100087F010008DF
:100110007F0100087F0100087F0100087F010008BF
:100120007F0100087F0100087F0100087F010008AF
:100130007F0100087F0100087F0100087F0100089F
:100140007F0100087F0100087F0100087F0100088F
:10015000DFF80CD000F018F800480047A1050008AF
:10016000080400200648804706480047FEE7FEE7EF
:10017000FEE7FEE7FEE7FEE7FEE7FEE7FEE7FEE757
:100180005D04000851010008064C074D06E0E068D8
:1001900040F0010394E8070098471034AC42F6D3CE
:1001A000FFF7DAFFD4050008F405000800BFFEE7FA
:1001B00070472DE9F041024600250026002000236B
:1001C0000024002791F803C00CF00F0591F803C03C
:1001D0001CF0100F03D091F802C04CEA0505B1F8ED
:1001E00000C01CF0FF0F31D0146800202BE04FF04E
:1001F000010C0CFA00F3B1F800C00CEA03069E42B1
:1002000020D183004FF00F0C0CFA03F7BC4305FA22
:1002100003FC4CEA040491F803C0BCF1280F06D19A
:100220004FF0010C0CFA00FCC2F814C00AE091F87F
:1002300003C0BCF1480F05D14FF0010C0CFA00FCD3
:10024000C2F810C0401C0828D1D31460B1F800C017
:10025000BCF1FF0F34DD546800202EE000F1080CE3
:100260004FF0010808FA0CF3B1F800C00CEA0306DD
:100270009E4221D183004FF00F0C0CFA03F7BC43D0
:1002800005FA03FC4CEA040491F803C0BCF1280F02
:1002900005D100F1080C08FA0CF8C2F8148091F8A6
:1002A00003C0BCF1480F07D100F1080C4FF0010862
:1002B00008FA0CF8C2F81080401C0828CED354600D
:1002C000BDE8F081416170470161704700BFFEE702
:1002D00008B50121202000F015F89C20ADF80000A1
:1002E00003208DF8020010208DF8030069460248B3
:1002F000FFF75FFF08BD00000014014000BFFEE7EC
:100300007047704729B1064A92690243044B9A61CB
:1003100004E0034A92698243014B9A6170470000EE
:1003200000100240704710B500F002F810BD000048
:10033000002100203A4A126842F48032384B1A6099
:1003400000BF374A126802F40030491C10B9B1F5F9
:10035000A06FF6D1324A126812F4003F01D001209A
:1003600000E0002001285AD12E4A126842F0100203
:100370002C4B1A601A46126822F003021A601A46C1
:10038000126842F002021A60254A5268244B5A60F1
:100390001A4652685A601A46526842F480625A609D
:1003A0001A46D26A204B1A401D4BDA621A46D26AAC
:1003B0001E4B1A431A4BDA621A46126842F08062E8
:1003C0001A6000BF164A126812F0006FFAD0144A81
:1003D000526822F47C12124B5A601A46526842F458
:1003E000E8125A601A46126842F080721A6000BF22
:1003F0000B4A126812F0007FFAD0094A526822F0C4
:100400000302074B5A601A46526842F002025A60D1
:1004100000BF034A526802F00C02082AF9D1704763
:10042000001002400020024000F0FEFF44060100E0
:10043000042808D14FF0E021096941F004014FF090
:10044000E022116107E04FF0E021096921F0040189
:100450004FF0E022116170477047000010B5164858
:10046000006840F0010014490860084640681349DC
:1004700008401149486008460068114908400E4983
:1004800008600846006820F480200860084640683C
:1004900020F4FE0048600846006820F0A050086084
:1004A0004FF47F0088600020C862FFF73CFF4FF0E8
:1004B00000600449086010BD001002400000FFF019
:1004C000FFFFF6FE08ED00E000BFFEE702E008C80F
:1004D000121F08C1002AFAD170477047002001E0BE
:1004E00001C1121F002AFBD17047000010B504465D
:1004F0006FF00400FFF79CFFE11704EB5171C91086
:10050000044A1170104600784FF47A71484302494A
:10051000088010BD000000200200002070B50446D5
:100520004FF4077094FBF0F0C6B24FF4077094FBE1
:10053000F0F100FB114085B205E04FF4077000F0C8
:1005400009F8701EC6B2002EF7D115B1284600F08A
:1005500001F870BD0146114A12884A434FF0E0236A
:100560005A6100229A611A46126942F001021A6128
:1005700000BF4FF0E022106910F0010F02D010F41C
:10058000803FF6D04FF0E022126922F001024FF0D6
:10059000E0231A6100229A617047000002000020E7
:1005A000FFF796FE5020FFF7A1FF0FE04FF47A709F
:1005B000FFF7B4FF9C210648FFF784FE4FF47A70E2
:1005C000FFF7ACFF9C210248FFF77EFEEEE700003C
:1005D00000140140F40500080000002004000000A1
:1005E000CC040008F8050008040000200404000002
:0805F000DC040008000000001B
:04000005080001519D
:00000001FF
